:1000000009C00EC04BC00CC00BC00AC009C008C05C
:1000100046C059C011241FBECFE9CDBF55D0A8C0DE
:10002000EFCF95B7977E906195BF9AB790629ABFD0
:10003000F894A89514BE98E991BD81BD789485B7D0
:10004000806285BF889585B78F7D85BF089586B10D
:10005000806986B981E487B987E592E00197F1F775
:1000600000C0000085B7877E886085BF25E180E0FD
:1000700090E035B7306235BF889535B73F7D35BFE5
:100080003699FECF44B155B1840F951F215089F7A1
:1000900037989695879596958795089518951F9208
:1000A0000F920FB60F9211248F930FB6F894A89564
:1000B00081B5886181BD11BC0FBE8F910F900FBEBD
:1000C0000F901F9018951895F894A89514BE88E97C
:1000D00081BD81E681BD7894BB9ABC9AB89AC19AD9
:1000E00083E086B9339A80E888B982E085BDA29A18
:1000F00080E28BBFA99A7894D1E010E2C39AA7DF7F
:10010000DD2321F08C3C20E1920728F4B19920C036
:100110008C3A9D40E8F0C49AC8E099DF883B9B4048
:1001200038F084E1B1991FC08150B1F4D0E001C032
:10013000D1E01BBEC09ACC0FCC0FCC0FC25EB39ADD
:1001400086E46FDFC150D9F7C0981BBFC498D6CFE3
:10015000C39881E666DFD2CFEFE2F5E73197F1F79A
:1001600000C00000DFCFC111C15081E65ADFD5CFFA
:04017000F894FFCF31
:00000001FF
